{
	"MedFed.sol": {
		"ModelRegistry": {
			"abi": [
				{
					"inputs": [
						{
							"internalType": "uint256",
							"name": "index",
							"type": "uint256"
						}
					],
					"name": "getUpdate",
					"outputs": [
						{
							"internalType": "string",
							"name": "",
							"type": "string"
						},
						{
							"internalType": "uint256",
							"name": "",
							"type": "uint256"
						}
					],
					"stateMutability": "view",
					"type": "function"
				},
				{
					"inputs": [
						{
							"internalType": "string",
							"name": "_hash",
							"type": "string"
						}
					],
					"name": "storeModelHash",
					"outputs": [],
					"stateMutability": "nonpayable",
					"type": "function"
				},
				{
					"inputs": [],
					"name": "totalUpdates",
					"outputs": [
						{
							"internalType": "uint256",
							"name": "",
							"type": "uint256"
						}
					],
					"stateMutability": "view",
					"type": "function"
				},
				{
					"inputs": [
						{
							"internalType": "uint256",
							"name": "",
							"type": "uint256"
						}
					],
					"name": "updates",
					"outputs": [
						{
							"internalType": "string",
							"name": "modelHash",
							"type": "string"
						},
						{
							"internalType": "uint256",
							"name": "timestamp",
							"type": "uint256"
						}
					],
					"stateMutability": "view",
					"type": "function"
				}
			],
			"devdoc": {
				"kind": "dev",
				"methods": {},
				"version": 1
			},
			"evm": {
				"assembly": "    /* \"MedFed.sol\":61:629  contract ModelRegistry {... */\n  mstore(0x40, 0x80)\n  callvalue\n  dup1\n  iszero\n  tag_1\n  jumpi\n  revert(0x00, 0x00)\ntag_1:\n  pop\n  dataSize(sub_0)\n  dup1\n  dataOffset(sub_0)\n  0x00\n  codecopy\n  0x00\n  return\nstop\n\nsub_0: assembly {\n        /* \"MedFed.sol\":61:629  contract ModelRegistry {... */\n      mstore(0x40, 0x80)\n      callvalue\n      dup1\n      iszero\n      tag_1\n      jumpi\n      revert(0x00, 0x00)\n    tag_1:\n      pop\n      jumpi(tag_2, lt(calldatasize, 0x04))\n      shr(0xe0, calldataload(0x00))\n      dup1\n      0x1b369491\n      eq\n      tag_3\n      jumpi\n      dup1\n      0x32cb25be\n      eq\n      tag_4\n      jumpi\n      dup1\n      0x933977ff\n      eq\n      tag_5\n      jumpi\n      dup1\n      0xb4c2f727\n      eq\n      tag_6\n      jumpi\n    tag_2:\n      revert(0x00, 0x00)\n        /* \"MedFed.sol\":532:626  function totalUpdates() public view returns (uint256) {... */\n    tag_3:\n      tag_7\n      tag_8\n      jump\t// in\n    tag_7:\n      mload(0x40)\n      tag_9\n      swap2\n      swap1\n      tag_10\n      jump\t// in\n    tag_9:\n      mload(0x40)\n      dup1\n      swap2\n      sub\n      swap1\n      return\n        /* \"MedFed.sol\":348:524  function getUpdate(uint index) public view returns (string memory, uint256) {... */\n    tag_4:\n      tag_11\n      0x04\n      dup1\n      calldatasize\n      sub\n      dup2\n      add\n      swap1\n      tag_12\n      swap2\n      swap1\n      tag_13\n      jump\t// in\n    tag_12:\n      tag_14\n      jump\t// in\n    tag_11:\n      mload(0x40)\n      tag_15\n      swap3\n      swap2\n      swap1\n      tag_16\n      jump\t// in\n    tag_15:\n      mload(0x40)\n      dup1\n      swap2\n      sub\n      swap1\n      return\n        /* \"MedFed.sol\":220:340  function storeModelHash(string memory _hash) public {... */\n    tag_5:\n      tag_17\n      0x04\n      dup1\n      calldatasize\n      sub\n      dup2\n      add\n      swap1\n      tag_18\n      swap2\n      swap1\n      tag_19\n      jump\t// in\n    tag_18:\n      tag_20\n      jump\t// in\n    tag_17:\n      stop\n        /* \"MedFed.sol\":183:211  ModelUpdate[] public updates */\n    tag_6:\n      tag_21\n      0x04\n      dup1\n      calldatasize\n      sub\n      dup2\n      add\n      swap1\n      tag_22\n      swap2\n      swap1\n      tag_13\n      jump\t// in\n    tag_22:\n      tag_23\n      jump\t// in\n    tag_21:\n      mload(0x40)\n      tag_24\n      swap3\n      swap2\n      swap1\n      tag_16\n      jump\t// in\n    tag_24:\n      mload(0x40)\n      dup1\n      swap2\n      sub\n      swap1\n      return\n        /* \"MedFed.sol\":532:626  function totalUpdates() public view returns (uint256) {... */\n    tag_8:\n        /* \"MedFed.sol\":577:584  uint256 */\n      0x00\n        /* \"MedFed.sol\":604:611  updates */\n      0x00\n        /* \"MedFed.sol\":604:618  updates.length */\n      dup1\n      sload\n      swap1\n      pop\n        /* \"MedFed.sol\":597:618  return updates.length */\n      swap1\n      pop\n        /* \"MedFed.sol\":532:626  function totalUpdates() public view returns (uint256) {... */\n      swap1\n      jump\t// out\n        /* \"MedFed.sol\":348:524  function getUpdate(uint index) public view returns (string memory, uint256) {... */\n    tag_14:\n        /* \"MedFed.sol\":400:413  string memory */\n      0x60\n        /* \"MedFed.sol\":415:422  uint256 */\n      0x00\n        /* \"MedFed.sol\":435:455  ModelUpdate memory m */\n      0x00\n        /* \"MedFed.sol\":458:465  updates */\n      0x00\n        /* \"MedFed.sol\":466:471  index */\n      dup5\n        /* \"MedFed.sol\":458:472  updates[index] */\n      dup2\n      sload\n      dup2\n      lt\n      tag_27\n      jumpi\n      tag_28\n      tag_29\n      jump\t// in\n    tag_28:\n    tag_27:\n      swap1\n      0x00\n      mstore\n      keccak256(0x00, 0x20)\n      swap1\n      0x02\n      mul\n      add\n        /* \"MedFed.sol\":435:472  ModelUpdate memory m = updates[index] */\n      mload(0x40)\n      dup1\n      0x40\n      add\n      0x40\n      mstore\n      swap1\n      dup2\n      0x00\n      dup3\n      add\n      dup1\n      sload\n      tag_31\n      swap1\n      tag_32\n      jump\t// in\n    tag_31:\n      dup1\n      0x1f\n      add\n      0x20\n      dup1\n      swap2\n      div\n      mul\n      0x20\n      add\n      mload(0x40)\n      swap1\n      dup2\n      add\n      0x40\n      mstore\n      dup1\n      swap3\n      swap2\n      swap1\n      dup2\n      dup2\n      mstore\n      0x20\n      add\n      dup3\n      dup1\n      sload\n      tag_33\n      swap1\n      tag_32\n      jump\t// in\n    tag_33:\n      dup1\n      iszero\n      tag_34\n      jumpi\n      dup1\n      0x1f\n      lt\n      tag_35\n      jumpi\n      0x0100\n      dup1\n      dup4\n      sload\n      div\n      mul\n      dup4\n      mstore\n      swap2\n      0x20\n      add\n      swap2\n      jump(tag_34)\n    tag_35:\n      dup3\n      add\n      swap2\n      swap1\n      0x00\n      mstore\n      keccak256(0x00, 0x20)\n      swap1\n    tag_36:\n      dup2\n      sload\n      dup2\n      mstore\n      swap1\n      0x01\n      add\n      swap1\n      0x20\n      add\n      dup1\n      dup4\n      gt\n      tag_36\n      jumpi\n      dup3\n      swap1\n      sub\n      0x1f\n      and\n      dup3\n      add\n      swap2\n    tag_34:\n      pop\n      pop\n      pop\n      pop\n      pop\n      dup2\n      mstore\n      0x20\n      add\n      0x01\n      dup3\n      add\n      sload\n      dup2\n      mstore\n      pop\n      pop\n      swap1\n      pop\n        /* \"MedFed.sol\":491:492  m */\n      dup1\n        /* \"MedFed.sol\":491:502  m.modelHash */\n      0x00\n      add\n      mload\n        /* \"MedFed.sol\":504:505  m */\n      dup2\n        /* \"MedFed.sol\":504:515  m.timestamp */\n      0x20\n      add\n      mload\n        /* \"MedFed.sol\":483:516  return (m.modelHash, m.timestamp) */\n      swap3\n      pop\n      swap3\n      pop\n      pop\n        /* \"MedFed.sol\":348:524  function getUpdate(uint index) public view returns (string memory, uint256) {... */\n      swap2\n      pop\n      swap2\n      jump\t// out\n        /* \"MedFed.sol\":220:340  function storeModelHash(string memory _hash) public {... */\n    tag_20:\n        /* \"MedFed.sol\":283:290  updates */\n      0x00\n        /* \"MedFed.sol\":296:331  ModelUpdate(_hash, block.timestamp) */\n      mload(0x40)\n      dup1\n      0x40\n      add\n      0x40\n      mstore\n      dup1\n        /* \"MedFed.sol\":308:313  _hash */\n      dup4\n        /* \"MedFed.sol\":296:331  ModelUpdate(_hash, block.timestamp) */\n      dup2\n      mstore\n      0x20\n      add\n        /* \"MedFed.sol\":315:330  block.timestamp */\n      timestamp\n        /* \"MedFed.sol\":296:331  ModelUpdate(_hash, block.timestamp) */\n      dup2\n      mstore\n      pop\n        /* \"MedFed.sol\":283:332  updates.push(ModelUpdate(_hash, block.timestamp)) */\n      swap1\n      dup1\n      0x01\n      dup2\n      sload\n      add\n      dup1\n      dup3\n      sstore\n      dup1\n      swap2\n      pop\n      pop\n      0x01\n      swap1\n      sub\n      swap1\n      0x00\n      mstore\n      keccak256(0x00, 0x20)\n      swap1\n      0x02\n      mul\n      add\n      0x00\n      swap1\n      swap2\n      swap1\n      swap2\n      swap1\n      swap2\n      pop\n      0x00\n      dup3\n      add\n      mload\n      dup2\n      0x00\n      add\n      swap1\n      dup2\n      tag_39\n      swap2\n      swap1\n      tag_40\n      jump\t// in\n    tag_39:\n      pop\n      0x20\n      dup3\n      add\n      mload\n      dup2\n      0x01\n      add\n      sstore\n      pop\n      pop\n        /* \"MedFed.sol\":220:340  function storeModelHash(string memory _hash) public {... */\n      pop\n      jump\t// out\n        /* \"MedFed.sol\":183:211  ModelUpdate[] public updates */\n    tag_23:\n      0x00\n      dup2\n      dup2\n      sload\n      dup2\n      lt\n      tag_41\n      jumpi\n      0x00\n      dup1\n      revert\n    tag_41:\n      swap1\n      0x00\n      mstore\n      keccak256(0x00, 0x20)\n      swap1\n      0x02\n      mul\n      add\n      0x00\n      swap2\n      pop\n      swap1\n      pop\n      dup1\n      0x00\n      add\n      dup1\n      sload\n      tag_43\n      swap1\n      tag_32\n      jump\t// in\n    tag_43:\n      dup1\n      0x1f\n      add\n      0x20\n      dup1\n      swap2\n      div\n      mul\n      0x20\n      add\n      mload(0x40)\n      swap1\n      dup2\n      add\n      0x40\n      mstore\n      dup1\n      swap3\n      swap2\n      swap1\n      dup2\n      dup2\n      mstore\n      0x20\n      add\n      dup3\n      dup1\n      sload\n      tag_44\n      swap1\n      tag_32\n      jump\t// in\n    tag_44:\n      dup1\n      iszero\n      tag_45\n      jumpi\n      dup1\n      0x1f\n      lt\n      tag_46\n      jumpi\n      0x0100\n      dup1\n      dup4\n      sload\n      div\n      mul\n      dup4\n      mstore\n      swap2\n      0x20\n      add\n      swap2\n      jump(tag_45)\n    tag_46:\n      dup3\n      add\n      swap2\n      swap1\n      0x00\n      mstore\n      keccak256(0x00, 0x20)\n      swap1\n    tag_47:\n      dup2\n      sload\n      dup2\n      mstore\n      swap1\n      0x01\n      add\n      swap1\n      0x20\n      add\n      dup1\n      dup4\n      gt\n      tag_47\n      jumpi\n      dup3\n      swap1\n      sub\n      0x1f\n      and\n      dup3\n      add\n      swap2\n    tag_45:\n      pop\n      pop\n      pop\n      pop\n      pop\n      swap1\n      dup1\n      0x01\n      add\n      sload\n      swap1\n      pop\n      dup3\n      jump\t// out\n        /* \"#utility.yul\":7:84   */\n    tag_48:\n        /* \"#utility.yul\":44:51   */\n      0x00\n        /* \"#utility.yul\":73:78   */\n      dup2\n        /* \"#utility.yul\":62:78   */\n      swap1\n      pop\n        /* \"#utility.yul\":7:84   */\n      swap2\n      swap1\n      pop\n      jump\t// out\n        /* \"#utility.yul\":90:208   */\n    tag_49:\n        /* \"#utility.yul\":177:201   */\n      tag_88\n        /* \"#utility.yul\":195:200   */\n      dup2\n        /* \"#utility.yul\":177:201   */\n      tag_48\n      jump\t// in\n    tag_88:\n        /* \"#utility.yul\":172:175   */\n      dup3\n        /* \"#utility.yul\":165:202   */\n      mstore\n        /* \"#utility.yul\":90:208   */\n      pop\n      pop\n      jump\t// out\n        /* \"#utility.yul\":214:436   */\n    tag_10:\n        /* \"#utility.yul\":307:311   */\n      0x00\n        /* \"#utility.yul\":345:347   */\n      0x20\n        /* \"#utility.yul\":334:343   */\n      dup3\n        /* \"#utility.yul\":330:348   */\n      add\n        /* \"#utility.yul\":322:348   */\n      swap1\n      pop\n        /* \"#utility.yul\":358:429   */\n      tag_90\n        /* \"#utility.yul\":426:427   */\n      0x00\n        /* \"#utility.yul\":415:424   */\n      dup4\n        /* \"#utility.yul\":411:428   */\n      add\n        /* \"#utility.yul\":402:408   */\n      dup5\n        /* \"#utility.yul\":358:429   */\n      tag_49\n      jump\t// in\n    tag_90:\n        /* \"#utility.yul\":214:436   */\n      swap3\n      swap2\n      pop\n      pop\n      jump\t// out\n        /* \"#utility.yul\":442:517   */\n    tag_50:\n        /* \"#utility.yul\":475:481   */\n      0x00\n        /* \"#utility.yul\":508:510   */\n      0x40\n        /* \"#utility.yul\":502:511   */\n      mload\n        /* \"#utility.yul\":492:511   */\n      swap1\n      pop\n        /* \"#utility.yul\":442:517   */\n      swap1\n      jump\t// out\n        /* \"#utility.yul\":523:640   */\n    tag_51:\n        /* \"#utility.yul\":632:633   */\n      0x00\n        /* \"#utility.yul\":629:630   */\n      0x00\n        /* \"#utility.yul\":622:634   */\n      revert\n        /* \"#utility.yul\":646:763   */\n    tag_52:\n        /* \"#utility.yul\":755:756   */\n      0x00\n        /* \"#utility.yul\":752:753   */\n      0x00\n        /* \"#utility.yul\":745:757   */\n      revert\n        /* \"#utility.yul\":769:891   */\n    tag_53:\n        /* \"#utility.yul\":842:866   */\n      tag_95\n        /* \"#utility.yul\":860:865   */\n      dup2\n        /* \"#utility.yul\":842:866   */\n      tag_48\n      jump\t// in\n    tag_95:\n        /* \"#utility.yul\":835:840   */\n      dup2\n        /* \"#utility.yul\":832:867   */\n      eq\n        /* \"#utility.yul\":822:885   */\n      tag_96\n      jumpi\n        /* \"#utility.yul\":881:882   */\n      0x00\n        /* \"#utility.yul\":878:879   */\n      0x00\n        /* \"#utility.yul\":871:883   */\n      revert\n        /* \"#utility.yul\":822:885   */\n    tag_96:\n        /* \"#utility.yul\":769:891   */\n      pop\n      jump\t// out\n        /* \"#utility.yul\":897:1036   */\n    tag_54:\n        /* \"#utility.yul\":943:948   */\n      0x00\n        /* \"#utility.yul\":981:987   */\n      dup2\n        /* \"#utility.yul\":968:988   */\n      calldataload\n        /* \"#utility.yul\":959:988   */\n      swap1\n      pop\n        /* \"#utility.yul\":997:1030   */\n      tag_98\n        /* \"#utility.yul\":1024:1029   */\n      dup2\n        /* \"#utility.yul\":997:1030   */\n      tag_53\n      jump\t// in\n    tag_98:\n        /* \"#utility.yul\":897:1036   */\n      swap3\n      swap2\n      pop\n      pop\n      jump\t// out\n        /* \"#utility.yul\":1042:1371   */\n    tag_13:\n        /* \"#utility.yul\":1101:1107   */\n      0x00\n        /* \"#utility.yul\":1150:1152   */\n      0x20\n        /* \"#utility.yul\":1138:1147   */\n      dup3\n        /* \"#utility.yul\":1129:1136   */\n      dup5\n        /* \"#utility.yul\":1125:1148   */\n      sub\n        /* \"#utility.yul\":1121:1153   */\n      slt\n        /* \"#utility.yul\":1118:1237   */\n      iszero\n      tag_100\n      jumpi\n        /* \"#utility.yul\":1156:1235   */\n      tag_101\n      tag_51\n      jump\t// in\n    tag_101:\n        /* \"#utility.yul\":1118:1237   */\n    tag_100:\n        /* \"#utility.yul\":1276:1277   */\n      0x00\n        /* \"#utility.yul\":1301:1354   */\n      tag_102\n        /* \"#utility.yul\":1346:1353   */\n      dup5\n        /* \"#utility.yul\":1337:1343   */\n      dup3\n        /* \"#utility.yul\":1326:1335   */\n      dup6\n        /* \"#utility.yul\":1322:1344   */\n      add\n        /* \"#utility.yul\":1301:1354   */\n      tag_54\n      jump\t// in\n    tag_102:\n        /* \"#utility.yul\":1291:1354   */\n      swap2\n      pop\n        /* \"#utility.yul\":1247:1364   */\n      pop\n        /* \"#utility.yul\":1042:1371   */\n      swap3\n      swap2\n      pop\n      pop\n      jump\t// out\n        /* \"#utility.yul\":1377:1476   */\n    tag_55:\n        /* \"#utility.yul\":1429:1435   */\n      0x00\n        /* \"#utility.yul\":1463:1468   */\n      dup2\n        /* \"#utility.yul\":1457:1469   */\n      mload\n        /* \"#utility.yul\":1447:1469   */\n      swap1\n      pop\n        /* \"#utility.yul\":1377:1476   */\n      swap2\n      swap1\n      pop\n      jump\t// out\n        /* \"#utility.yul\":1482:1651   */\n    tag_56:\n        /* \"#utility.yul\":1566:1577   */\n      0x00\n        /* \"#utility.yul\":1600:1606   */\n      dup3\n        /* \"#utility.yul\":1595:1598   */\n      dup3\n        /* \"#utility.yul\":1588:1607   */\n      mstore\n        /* \"#utility.yul\":1640:1644   */\n      0x20\n        /* \"#utility.yul\":1635:1638   */\n      dup3\n        /* \"#utility.yul\":1631:1645   */\n      add\n        /* \"#utility.yul\":1616:1645   */\n      swap1\n      pop\n        /* \"#utility.yul\":1482:1651   */\n      swap3\n      swap2\n      pop\n      pop\n      jump\t// out\n        /* \"#utility.yul\":1657:1796   */\n    tag_57:\n        /* \"#utility.yul\":1746:1752   */\n      dup3\n        /* \"#utility.yul\":1741:1744   */\n      dup2\n        /* \"#utility.yul\":1736:1739   */\n      dup4\n        /* \"#utility.yul\":1730:1753   */\n      mcopy\n        /* \"#utility.yul\":1787:1788   */\n      0x00\n        /* \"#utility.yul\":1778:1784   */\n      dup4\n        /* \"#utility.yul\":1773:1776   */\n      dup4\n        /* \"#utility.yul\":1769:1785   */\n      add\n        /* \"#utility.yul\":1762:1789   */\n      mstore\n        /* \"#utility.yul\":1657:1796   */\n      pop\n      pop\n      pop\n      jump\t// out\n        /* \"#utility.yul\":1802:1904   */\n    tag_58:\n        /* \"#utility.yul\":1843:1849   */\n      0x00\n        /* \"#utility.yul\":1894:1896   */\n      0x1f\n        /* \"#utility.yul\":1890:1897   */\n      not\n        /* \"#utility.yul\":1885:1887   */\n      0x1f\n        /* \"#utility.yul\":1878:1883   */\n      dup4\n        /* \"#utility.yul\":1874:1888   */\n      add\n        /* \"#utility.yul\":1870:1898   */\n      and\n        /* \"#utility.yul\":1860:1898   */\n      swap1\n      pop\n        /* \"#utility.yul\":1802:1904   */\n      swap2\n      swap1\n      pop\n      jump\t// out\n        /* \"#utility.yul\":1910:2287   */\n    tag_59:\n        /* \"#utility.yul\":1998:2001   */\n      0x00\n        /* \"#utility.yul\":2026:2065   */\n      tag_108\n        /* \"#utility.yul\":2059:2064   */\n      dup3\n        /* \"#utility.yul\":2026:2065   */\n      tag_55\n      jump\t// in\n    tag_108:\n        /* \"#utility.yul\":2081:2152   */\n      tag_109\n        /* \"#utility.yul\":2145:2151   */\n      dup2\n        /* \"#utility.yul\":2140:2143   */\n      dup6\n        /* \"#utility.yul\":2081:2152   */\n      tag_56\n      jump\t// in\n    tag_109:\n        /* \"#utility.yul\":2074:2152   */\n      swap4\n      pop\n        /* \"#utility.yul\":2161:2226   */\n      tag_110\n        /* \"#utility.yul\":2219:2225   */\n      dup2\n        /* \"#utility.yul\":2214:2217   */\n      dup6\n        /* \"#utility.yul\":2207:2211   */\n      0x20\n        /* \"#utility.yul\":2200:2205   */\n      dup7\n        /* \"#utility.yul\":2196:2212   */\n      add\n        /* \"#utility.yul\":2161:2226   */\n      tag_57\n      jump\t// in\n    tag_110:\n        /* \"#utility.yul\":2251:2280   */\n      tag_111\n        /* \"#utility.yul\":2273:2279   */\n      dup2\n        /* \"#utility.yul\":2251:2280   */\n      tag_58\n      jump\t// in\n    tag_111:\n        /* \"#utility.yul\":2246:2249   */\n      dup5\n        /* \"#utility.yul\":2242:2281   */\n      add\n        /* \"#utility.yul\":2235:2281   */\n      swap2\n      pop\n        /* \"#utility.yul\":2002:2287   */\n      pop\n        /* \"#utility.yul\":1910:2287   */\n      swap3\n      swap2\n      pop\n      pop\n      jump\t// out\n        /* \"#utility.yul\":2293:2716   */\n    tag_16:\n        /* \"#utility.yul\":2434:2438   */\n      0x00\n        /* \"#utility.yul\":2472:2474   */\n      0x40\n        /* \"#utility.yul\":2461:2470   */\n      dup3\n        /* \"#utility.yul\":2457:2475   */\n      add\n        /* \"#utility.yul\":2449:2475   */\n      swap1\n      pop\n        /* \"#utility.yul\":2521:2530   */\n      dup2\n        /* \"#utility.yul\":2515:2519   */\n      dup2\n        /* \"#utility.yul\":2511:2531   */\n      sub\n        /* \"#utility.yul\":2507:2508   */\n      0x00\n        /* \"#utility.yul\":2496:2505   */\n      dup4\n        /* \"#utility.yul\":2492:2509   */\n      add\n        /* \"#utility.yul\":2485:2532   */\n      mstore\n        /* \"#utility.yul\":2549:2627   */\n      tag_113\n        /* \"#utility.yul\":2622:2626   */\n      dup2\n        /* \"#utility.yul\":2613:2619   */\n      dup6\n        /* \"#utility.yul\":2549:2627   */\n      tag_59\n      jump\t// in\n    tag_113:\n        /* \"#utility.yul\":2541:2627   */\n      swap1\n      pop\n        /* \"#utility.yul\":2637:2709   */\n      tag_114\n        /* \"#utility.yul\":2705:2707   */\n      0x20\n        /* \"#utility.yul\":2694:2703   */\n      dup4\n        /* \"#utility.yul\":2690:2708   */\n      add\n        /* \"#utility.yul\":2681:2687   */\n      dup5\n        /* \"#utility.yul\":2637:2709   */\n      tag_49\n      jump\t// in\n    tag_114:\n        /* \"#utility.yul\":2293:2716   */\n      swap4\n      swap3\n      pop\n      pop\n      pop\n      jump\t// out\n        /* \"#utility.yul\":2722:2839   */\n    tag_60:\n        /* \"#utility.yul\":2831:2832   */\n      0x00\n        /* \"#utility.yul\":2828:2829   */\n      0x00\n        /* \"#utility.yul\":2821:2833   */\n      revert\n        /* \"#utility.yul\":2845:2962   */\n    tag_61:\n        /* \"#utility.yul\":2954:2955   */\n      0x00\n        /* \"#utility.yul\":2951:2952   */\n      0x00\n        /* \"#utility.yul\":2944:2956   */\n      revert\n        /* \"#utility.yul\":2968:3148   */\n    tag_62:\n        /* \"#utility.yul\":3016:3093   */\n      0x4e487b7100000000000000000000000000000000000000000000000000000000\n        /* \"#utility.yul\":3013:3014   */\n      0x00\n        /* \"#utility.yul\":3006:3094   */\n      mstore\n        /* \"#utility.yul\":3113:3117   */\n      0x41\n        /* \"#utility.yul\":3110:3111   */\n      0x04\n        /* \"#utility.yul\":3103:3118   */\n      mstore\n        /* \"#utility.yul\":3137:3141   */\n      0x24\n        /* \"#utility.yul\":3134:3135   */\n      0x00\n        /* \"#utility.yul\":3127:3142   */\n      revert\n        /* \"#utility.yul\":3154:3435   */\n    tag_63:\n        /* \"#utility.yul\":3237:3264   */\n      tag_119\n        /* \"#utility.yul\":3259:3263   */\n      dup3\n        /* \"#utility.yul\":3237:3264   */\n      tag_58\n      jump\t// in\n    tag_119:\n        /* \"#utility.yul\":3229:3235   */\n      dup2\n        /* \"#utility.yul\":3225:3265   */\n      add\n        /* \"#utility.yul\":3367:3373   */\n      dup2\n        /* \"#utility.yul\":3355:3365   */\n      dup2\n        /* \"#utility.yul\":3352:3374   */\n      lt\n        /* \"#utility.yul\":3331:3349   */\n      0xffffffffffffffff\n        /* \"#utility.yul\":3319:3329   */\n      dup3\n        /* \"#utility.yul\":3316:3350   */\n      gt\n        /* \"#utility.yul\":3313:3375   */\n      or\n        /* \"#utility.yul\":3310:3398   */\n      iszero\n      tag_120\n      jumpi\n        /* \"#utility.yul\":3378:3396   */\n      tag_121\n      tag_62\n      jump\t// in\n    tag_121:\n        /* \"#utility.yul\":3310:3398   */\n    tag_120:\n        /* \"#utility.yul\":3418:3428   */\n      dup1\n        /* \"#utility.yul\":3414:3416   */\n      0x40\n        /* \"#utility.yul\":3407:3429   */\n      mstore\n        /* \"#utility.yul\":3197:3435   */\n      pop\n        /* \"#utility.yul\":3154:3435   */\n      pop\n      pop\n      jump\t// out\n        /* \"#utility.yul\":3441:3570   */\n    tag_64:\n        /* \"#utility.yul\":3475:3481   */\n      0x00\n        /* \"#utility.yul\":3502:3522   */\n      tag_123\n      tag_50\n      jump\t// in\n    tag_123:\n        /* \"#utility.yul\":3492:3522   */\n      swap1\n      pop\n        /* \"#utility.yul\":3531:3564   */\n      tag_124\n        /* \"#utility.yul\":3559:3563   */\n      dup3\n        /* \"#utility.yul\":3551:3557   */\n      dup3\n        /* \"#utility.yul\":3531:3564   */\n      tag_63\n      jump\t// in\n    tag_124:\n        /* \"#utility.yul\":3441:3570   */\n      swap2\n      swap1\n      pop\n      jump\t// out\n        /* \"#utility.yul\":3576:3884   */\n    tag_65:\n        /* \"#utility.yul\":3638:3642   */\n      0x00\n        /* \"#utility.yul\":3728:3746   */\n      0xffffffffffffffff\n        /* \"#utility.yul\":3720:3726   */\n      dup3\n        /* \"#utility.yul\":3717:3747   */\n      gt\n        /* \"#utility.yul\":3714:3770   */\n      iszero\n      tag_126\n      jumpi\n        /* \"#utility.yul\":3750:3768   */\n      tag_127\n      tag_62\n      jump\t// in\n    tag_127:\n        /* \"#utility.yul\":3714:3770   */\n    tag_126:\n        /* \"#utility.yul\":3788:3817   */\n      tag_128\n        /* \"#utility.yul\":3810:3816   */\n      dup3\n        /* \"#utility.yul\":3788:3817   */\n      tag_58\n      jump\t// in\n    tag_128:\n        /* \"#utility.yul\":3780:3817   */\n      swap1\n      pop\n        /* \"#utility.yul\":3872:3876   */\n      0x20\n        /* \"#utility.yul\":3866:3870   */\n      dup2\n        /* \"#utility.yul\":3862:3877   */\n      add\n        /* \"#utility.yul\":3854:3877   */\n      swap1\n      pop\n        /* \"#utility.yul\":3576:3884   */\n      swap2\n      swap1\n      pop\n      jump\t// out\n        /* \"#utility.yul\":3890:4038   */\n    tag_66:\n        /* \"#utility.yul\":3988:3994   */\n      dup3\n        /* \"#utility.yul\":3983:3986   */\n      dup2\n        /* \"#utility.yul\":3978:3981   */\n      dup4\n        /* \"#utility.yul\":3965:3995   */\n      calldatacopy\n        /* \"#utility.yul\":4029:4030   */\n      0x00\n        /* \"#utility.yul\":4020:4026   */\n      dup4\n        /* \"#utility.yul\":4015:4018   */\n      dup4\n        /* \"#utility.yul\":4011:4027   */\n      add\n        /* \"#utility.yul\":4004:4031   */\n      mstore\n        /* \"#utility.yul\":3890:4038   */\n      pop\n      pop\n      pop\n      jump\t// out\n        /* \"#utility.yul\":4044:4469   */\n    tag_67:\n        /* \"#utility.yul\":4122:4127   */\n      0x00\n        /* \"#utility.yul\":4147:4213   */\n      tag_131\n        /* \"#utility.yul\":4163:4212   */\n      tag_132\n        /* \"#utility.yul\":4205:4211   */\n      dup5\n        /* \"#utility.yul\":4163:4212   */\n      tag_65\n      jump\t// in\n    tag_132:\n        /* \"#utility.yul\":4147:4213   */\n      tag_64\n      jump\t// in\n    tag_131:\n        /* \"#utility.yul\":4138:4213   */\n      swap1\n      pop\n        /* \"#utility.yul\":4236:4242   */\n      dup3\n        /* \"#utility.yul\":4229:4234   */\n      dup2\n        /* \"#utility.yul\":4222:4243   */\n      mstore\n        /* \"#utility.yul\":4274:4278   */\n      0x20\n        /* \"#utility.yul\":4267:4272   */\n      dup2\n        /* \"#utility.yul\":4263:4279   */\n      add\n        /* \"#utility.yul\":4312:4315   */\n      dup5\n        /* \"#utility.yul\":4303:4309   */\n      dup5\n        /* \"#utility.yul\":4298:4301   */\n      dup5\n        /* \"#utility.yul\":4294:4310   */\n      add\n        /* \"#utility.yul\":4291:4316   */\n      gt\n        /* \"#utility.yul\":4288:4400   */\n      iszero\n      tag_133\n      jumpi\n        /* \"#utility.yul\":4319:4398   */\n      tag_134\n      tag_61\n      jump\t// in\n    tag_134:\n        /* \"#utility.yul\":4288:4400   */\n    tag_133:\n        /* \"#utility.yul\":4409:4463   */\n      tag_135\n        /* \"#utility.yul\":4456:4462   */\n      dup5\n        /* \"#utility.yul\":4451:4454   */\n      dup3\n        /* \"#utility.yul\":4446:4449   */\n      dup6\n        /* \"#utility.yul\":4409:4463   */\n      tag_66\n      jump\t// in\n    tag_135:\n        /* \"#utility.yul\":4128:4469   */\n      pop\n        /* \"#utility.yul\":4044:4469   */\n      swap4\n      swap3\n      pop\n      pop\n      pop\n      jump\t// out\n        /* \"#utility.yul\":4489:4829   */\n    tag_68:\n        /* \"#utility.yul\":4545:4550   */\n      0x00\n        /* \"#utility.yul\":4594:4597   */\n      dup3\n        /* \"#utility.yul\":4587:4591   */\n      0x1f\n        /* \"#utility.yul\":4579:4585   */\n      dup4\n        /* \"#utility.yul\":4575:4592   */\n      add\n        /* \"#utility.yul\":4571:4598   */\n      slt\n        /* \"#utility.yul\":4561:4683   */\n      tag_137\n      jumpi\n        /* \"#utility.yul\":4602:4681   */\n      tag_138\n      tag_60\n      jump\t// in\n    tag_138:\n        /* \"#utility.yul\":4561:4683   */\n    tag_137:\n        /* \"#utility.yul\":4719:4725   */\n      dup2\n        /* \"#utility.yul\":4706:4726   */\n      calldataload\n        /* \"#utility.yul\":4744:4823   */\n      tag_139\n        /* \"#utility.yul\":4819:4822   */\n      dup5\n        /* \"#utility.yul\":4811:4817   */\n      dup3\n        /* \"#utility.yul\":4804:4808   */\n      0x20\n        /* \"#utility.yul\":4796:4802   */\n      dup7\n        /* \"#utility.yul\":4792:4809   */\n      add\n        /* \"#utility.yul\":4744:4823   */\n      tag_67\n      jump\t// in\n    tag_139:\n        /* \"#utility.yul\":4735:4823   */\n      swap2\n      pop\n        /* \"#utility.yul\":4551:4829   */\n      pop\n        /* \"#utility.yul\":4489:4829   */\n      swap3\n      swap2\n      pop\n      pop\n      jump\t// out\n        /* \"#utility.yul\":4835:5344   */\n    tag_19:\n        /* \"#utility.yul\":4904:4910   */\n      0x00\n        /* \"#utility.yul\":4953:4955   */\n      0x20\n        /* \"#utility.yul\":4941:4950   */\n      dup3\n        /* \"#utility.yul\":4932:4939   */\n      dup5\n        /* \"#utility.yul\":4928:4951   */\n      sub\n        /* \"#utility.yul\":4924:4956   */\n      slt\n        /* \"#utility.yul\":4921:5040   */\n      iszero\n      tag_141\n      jumpi\n        /* \"#utility.yul\":4959:5038   */\n      tag_142\n      tag_51\n      jump\t// in\n    tag_142:\n        /* \"#utility.yul\":4921:5040   */\n    tag_141:\n        /* \"#utility.yul\":5107:5108   */\n      0x00\n        /* \"#utility.yul\":5096:5105   */\n      dup3\n        /* \"#utility.yul\":5092:5109   */\n      add\n        /* \"#utility.yul\":5079:5110   */\n      calldataload\n        /* \"#utility.yul\":5137:5155   */\n      0xffffffffffffffff\n        /* \"#utility.yul\":5129:5135   */\n      dup2\n        /* \"#utility.yul\":5126:5156   */\n      gt\n        /* \"#utility.yul\":5123:5240   */\n      iszero\n      tag_143\n      jumpi\n        /* \"#utility.yul\":5159:5238   */\n      tag_144\n      tag_52\n      jump\t// in\n    tag_144:\n        /* \"#utility.yul\":5123:5240   */\n    tag_143:\n        /* \"#utility.yul\":5264:5327   */\n      tag_145\n        /* \"#utility.yul\":5319:5326   */\n      dup5\n        /* \"#utility.yul\":5310:5316   */\n      dup3\n        /* \"#utility.yul\":5299:5308   */\n      dup6\n        /* \"#utility.yul\":5295:5317   */\n      add\n        /* \"#utility.yul\":5264:5327   */\n      tag_68\n      jump\t// in\n    tag_145:\n        /* \"#utility.yul\":5254:5327   */\n      swap2\n      pop\n        /* \"#utility.yul\":5050:5337   */\n      pop\n        /* \"#utility.yul\":4835:5344   */\n      swap3\n      swap2\n      pop\n      pop\n      jump\t// out\n        /* \"#utility.yul\":5350:5530   */\n    tag_29:\n        /* \"#utility.yul\":5398:5475   */\n      0x4e487b7100000000000000000000000000000000000000000000000000000000\n        /* \"#utility.yul\":5395:5396   */\n      0x00\n        /* \"#utility.yul\":5388:5476   */\n      mstore\n        /* \"#utility.yul\":5495:5499   */\n      0x32\n        /* \"#utility.yul\":5492:5493   */\n      0x04\n        /* \"#utility.yul\":5485:5500   */\n      mstore\n        /* \"#utility.yul\":5519:5523   */\n      0x24\n        /* \"#utility.yul\":5516:5517   */\n      0x00\n        /* \"#utility.yul\":5509:5524   */\n      revert\n        /* \"#utility.yul\":5536:5716   */\n    tag_69:\n        /* \"#utility.yul\":5584:5661   */\n      0x4e487b7100000000000000000000000000000000000000000000000000000000\n        /* \"#utility.yul\":5581:5582   */\n      0x00\n        /* \"#utility.yul\":5574:5662   */\n      mstore\n        /* \"#utility.yul\":5681:5685   */\n      0x22\n        /* \"#utility.yul\":5678:5679   */\n      0x04\n        /* \"#utility.yul\":5671:5686   */\n      mstore\n        /* \"#utility.yul\":5705:5709   */\n      0x24\n        /* \"#utility.yul\":5702:5703   */\n      0x00\n        /* \"#utility.yul\":5695:5710   */\n      revert\n        /* \"#utility.yul\":5722:6042   */\n    tag_32:\n        /* \"#utility.yul\":5766:5772   */\n      0x00\n        /* \"#utility.yul\":5803:5804   */\n      0x02\n        /* \"#utility.yul\":5797:5801   */\n      dup3\n        /* \"#utility.yul\":5793:5805   */\n      div\n        /* \"#utility.yul\":5783:5805   */\n      swap1\n      pop\n        /* \"#utility.yul\":5850:5851   */\n      0x01\n        /* \"#utility.yul\":5844:5848   */\n      dup3\n        /* \"#utility.yul\":5840:5852   */\n      and\n        /* \"#utility.yul\":5871:5889   */\n      dup1\n        /* \"#utility.yul\":5861:5942   */\n      tag_149\n      jumpi\n        /* \"#utility.yul\":5927:5931   */\n      0x7f\n        /* \"#utility.yul\":5919:5925   */\n      dup3\n        /* \"#utility.yul\":5915:5932   */\n      and\n        /* \"#utility.yul\":5905:5932   */\n      swap2\n      pop\n        /* \"#utility.yul\":5861:5942   */\n    tag_149:\n        /* \"#utility.yul\":5989:5991   */\n      0x20\n        /* \"#utility.yul\":5981:5987   */\n      dup3\n        /* \"#utility.yul\":5978:5992   */\n      lt\n        /* \"#utility.yul\":5958:5976   */\n      dup2\n        /* \"#utility.yul\":5955:5993   */\n      sub\n        /* \"#utility.yul\":5952:6036   */\n      tag_150\n      jumpi\n        /* \"#utility.yul\":6008:6026   */\n      tag_151\n      tag_69\n      jump\t// in\n    tag_151:\n        /* \"#utility.yul\":5952:6036   */\n    tag_150:\n        /* \"#utility.yul\":5773:6042   */\n      pop\n        /* \"#utility.yul\":5722:6042   */\n      swap2\n      swap1\n      pop\n      jump\t// out\n        /* \"#utility.yul\":6048:6189   */\n    tag_70:\n        /* \"#utility.yul\":6097:6101   */\n      0x00\n        /* \"#utility.yul\":6120:6123   */\n      dup2\n        /* \"#utility.yul\":6112:6123   */\n      swap1\n      pop\n        /* \"#utility.yul\":6143:6146   */\n      dup2\n        /* \"#utility.yul\":6140:6141   */\n      0x00\n        /* \"#utility.yul\":6133:6147   */\n      mstore\n        /* \"#utility.yul\":6177:6181   */\n      0x20\n        /* \"#utility.yul\":6174:6175   */\n      0x00\n        /* \"#utility.yul\":6164:6182   */\n      keccak256\n        /* \"#utility.yul\":6156:6182   */\n      swap1\n      pop\n        /* \"#utility.yul\":6048:6189   */\n      swap2\n      swap1\n      pop\n      jump\t// out\n        /* \"#utility.yul\":6195:6288   */\n    tag_71:\n        /* \"#utility.yul\":6232:6238   */\n      0x00\n        /* \"#utility.yul\":6279:6281   */\n      0x20\n        /* \"#utility.yul\":6274:6276   */\n      0x1f\n        /* \"#utility.yul\":6267:6272   */\n      dup4\n        /* \"#utility.yul\":6263:6277   */\n      add\n        /* \"#utility.yul\":6259:6282   */\n      div\n        /* \"#utility.yul\":6249:6282   */\n      swap1\n      pop\n        /* \"#utility.yul\":6195:6288   */\n      swap2\n      swap1\n      pop\n      jump\t// out\n        /* \"#utility.yul\":6294:6401   */\n    tag_72:\n        /* \"#utility.yul\":6338:6346   */\n      0x00\n        /* \"#utility.yul\":6388:6393   */\n      dup3\n        /* \"#utility.yul\":6382:6386   */\n      dup3\n        /* \"#utility.yul\":6378:6394   */\n      shl\n        /* \"#utility.yul\":6357:6394   */\n      swap1\n      pop\n        /* \"#utility.yul\":6294:6401   */\n      swap3\n      swap2\n      pop\n      pop\n      jump\t// out\n        /* \"#utility.yul\":6407:6800   */\n    tag_73:\n        /* \"#utility.yul\":6476:6482   */\n      0x00\n        /* \"#utility.yul\":6526:6527   */\n      0x08\n        /* \"#utility.yul\":6514:6524   */\n      dup4\n        /* \"#utility.yul\":6510:6528   */\n      mul\n        /* \"#utility.yul\":6549:6646   */\n      tag_156\n        /* \"#utility.yul\":6579:6645   */\n      0xffffffffffffffffffffffffffffffffffffffffffffffffffffffffffffffff\n        /* \"#utility.yul\":6568:6577   */\n      dup3\n        /* \"#utility.yul\":6549:6646   */\n      tag_72\n      jump\t// in\n    tag_156:\n        /* \"#utility.yul\":6667:6706   */\n      tag_157\n        /* \"#utility.yul\":6697:6705   */\n      dup7\n        /* \"#utility.yul\":6686:6695   */\n      dup4\n        /* \"#utility.yul\":6667:6706   */\n      tag_72\n      jump\t// in\n    tag_157:\n        /* \"#utility.yul\":6655:6706   */\n      swap6\n      pop\n        /* \"#utility.yul\":6739:6743   */\n      dup1\n        /* \"#utility.yul\":6735:6744   */\n      not\n        /* \"#utility.yul\":6728:6733   */\n      dup5\n        /* \"#utility.yul\":6724:6745   */\n      and\n        /* \"#utility.yul\":6715:6745   */\n      swap4\n      pop\n        /* \"#utility.yul\":6788:6792   */\n      dup1\n        /* \"#utility.yul\":6778:6786   */\n      dup7\n        /* \"#utility.yul\":6774:6793   */\n      and\n        /* \"#utility.yul\":6767:6772   */\n      dup5\n        /* \"#utility.yul\":6764:6794   */\n      or\n        /* \"#utility.yul\":6754:6794   */\n      swap3\n      pop\n        /* \"#utility.yul\":6483:6800   */\n      pop\n      pop\n        /* \"#utility.yul\":6407:6800   */\n      swap4\n      swap3\n      pop\n      pop\n      pop\n      jump\t// out\n        /* \"#utility.yul\":6806:6866   */\n    tag_74:\n        /* \"#utility.yul\":6834:6837   */\n      0x00\n        /* \"#utility.yul\":6855:6860   */\n      dup2\n        /* \"#utility.yul\":6848:6860   */\n      swap1\n      pop\n        /* \"#utility.yul\":6806:6866   */\n      swap2\n      swap1\n      pop\n      jump\t// out\n        /* \"#utility.yul\":6872:7014   */\n    tag_75:\n        /* \"#utility.yul\":6922:6931   */\n      0x00\n        /* \"#utility.yul\":6955:7008   */\n      tag_160\n        /* \"#utility.yul\":6973:7007   */\n      tag_161\n        /* \"#utility.yul\":6982:7006   */\n      tag_162\n        /* \"#utility.yul\":7000:7005   */\n      dup5\n        /* \"#utility.yul\":6982:7006   */\n      tag_48\n      jump\t// in\n    tag_162:\n        /* \"#utility.yul\":6973:7007   */\n      tag_74\n      jump\t// in\n    tag_161:\n        /* \"#utility.yul\":6955:7008   */\n      tag_48\n      jump\t// in\n    tag_160:\n        /* \"#utility.yul\":6942:7008   */\n      swap1\n      pop\n        /* \"#utility.yul\":6872:7014   */\n      swap2\n      swap1\n      pop\n      jump\t// out\n        /* \"#utility.yul\":7020:7095   */\n    tag_76:\n        /* \"#utility.yul\":7063:7066   */\n      0x00\n        /* \"#utility.yul\":7084:7089   */\n      dup2\n        /* \"#utility.yul\":7077:7089   */\n      swap1\n      pop\n        /* \"#utility.yul\":7020:7095   */\n      swap2\n      swap1\n      pop\n      jump\t// out\n        /* \"#utility.yul\":7101:7370   */\n    tag_77:\n        /* \"#utility.yul\":7211:7250   */\n      tag_165\n        /* \"#utility.yul\":7242:7249   */\n      dup4\n        /* \"#utility.yul\":7211:7250   */\n      tag_75\n      jump\t// in\n    tag_165:\n        /* \"#utility.yul\":7272:7363   */\n      tag_166\n        /* \"#utility.yul\":7321:7362   */\n      tag_167\n        /* \"#utility.yul\":7345:7361   */\n      dup3\n        /* \"#utility.yul\":7321:7362   */\n      tag_76\n      jump\t// in\n    tag_167:\n        /* \"#utility.yul\":7313:7319   */\n      dup5\n        /* \"#utility.yul\":7306:7310   */\n      dup5\n        /* \"#utility.yul\":7300:7311   */\n      sload\n        /* \"#utility.yul\":7272:7363   */\n      tag_73\n      jump\t// in\n    tag_166:\n        /* \"#utility.yul\":7266:7270   */\n      dup3\n        /* \"#utility.yul\":7259:7364   */\n      sstore\n        /* \"#utility.yul\":7177:7370   */\n      pop\n        /* \"#utility.yul\":7101:7370   */\n      pop\n      pop\n      pop\n      jump\t// out\n        /* \"#utility.yul\":7376:7449   */\n    tag_78:\n        /* \"#utility.yul\":7421:7424   */\n      0x00\n        /* \"#utility.yul\":7442:7443   */\n      0x00\n        /* \"#utility.yul\":7435:7443   */\n      swap1\n      pop\n        /* \"#utility.yul\":7376:7449   */\n      swap1\n      jump\t// out\n        /* \"#utility.yul\":7455:7644   */\n    tag_79:\n        /* \"#utility.yul\":7532:7564   */\n      tag_170\n      tag_78\n      jump\t// in\n    tag_170:\n        /* \"#utility.yul\":7573:7638   */\n      tag_171\n        /* \"#utility.yul\":7631:7637   */\n      dup2\n        /* \"#utility.yul\":7623:7629   */\n      dup5\n        /* \"#utility.yul\":7617:7621   */\n      dup5\n        /* \"#utility.yul\":7573:7638   */\n      tag_77\n      jump\t// in\n    tag_171:\n        /* \"#utility.yul\":7508:7644   */\n      pop\n        /* \"#utility.yul\":7455:7644   */\n      pop\n      pop\n      jump\t// out\n        /* \"#utility.yul\":7650:7836   */\n    tag_80:\n        /* \"#utility.yul\":7710:7830   */\n    tag_173:\n        /* \"#utility.yul\":7727:7730   */\n      dup2\n        /* \"#utility.yul\":7720:7725   */\n      dup2\n        /* \"#utility.yul\":7717:7731   */\n      lt\n        /* \"#utility.yul\":7710:7830   */\n      iszero\n      tag_175\n      jumpi\n        /* \"#utility.yul\":7781:7820   */\n      tag_176\n        /* \"#utility.yul\":7818:7819   */\n      0x00\n        /* \"#utility.yul\":7811:7816   */\n      dup3\n        /* \"#utility.yul\":7781:7820   */\n      tag_79\n      jump\t// in\n    tag_176:\n        /* \"#utility.yul\":7754:7755   */\n      0x01\n        /* \"#utility.yul\":7747:7752   */\n      dup2\n        /* \"#utility.yul\":7743:7756   */\n      add\n        /* \"#utility.yul\":7734:7756   */\n      swap1\n      pop\n        /* \"#utility.yul\":7710:7830   */\n      jump(tag_173)\n    tag_175:\n        /* \"#utility.yul\":7650:7836   */\n      pop\n      pop\n      jump\t// out\n        /* \"#utility.yul\":7842:8385   */\n    tag_81:\n        /* \"#utility.yul\":7943:7945   */\n      0x1f\n        /* \"#utility.yul\":7938:7941   */\n      dup3\n        /* \"#utility.yul\":7935:7946   */\n      gt\n        /* \"#utility.yul\":7932:8378   */\n      iszero\n      tag_178\n      jumpi\n        /* \"#utility.yul\":7977:8015   */\n      tag_179\n        /* \"#utility.yul\":8009:8014   */\n      dup2\n        /* \"#utility.yul\":7977:8015   */\n      tag_70\n      jump\t// in\n    tag_179:\n        /* \"#utility.yul\":8061:8090   */\n      tag_180\n        /* \"#utility.yul\":8079:8089   */\n      dup5\n        /* \"#utility.yul\":8061:8090   */\n      tag_71\n      jump\t// in\n    tag_180:\n        /* \"#utility.yul\":8051:8059   */\n      dup2\n        /* \"#utility.yul\":8047:8091   */\n      add\n        /* \"#utility.yul\":8244:8246   */\n      0x20\n        /* \"#utility.yul\":8232:8242   */\n      dup6\n        /* \"#utility.yul\":8229:8247   */\n      lt\n        /* \"#utility.yul\":8226:8275   */\n      iszero\n      tag_181\n      jumpi\n        /* \"#utility.yul\":8265:8273   */\n      dup2\n        /* \"#utility.yul\":8250:8273   */\n      swap1\n      pop\n        /* \"#utility.yul\":8226:8275   */\n    tag_181:\n        /* \"#utility.yul\":8288:8368   */\n      tag_182\n        /* \"#utility.yul\":8344:8366   */\n      tag_183\n        /* \"#utility.yul\":8362:8365   */\n      dup6\n        /* \"#utility.yul\":8344:8366   */\n      tag_71\n      jump\t// in\n    tag_183:\n        /* \"#utility.yul\":8334:8342   */\n      dup4\n        /* \"#utility.yul\":8330:8367   */\n      add\n        /* \"#utility.yul\":8317:8328   */\n      dup3\n        /* \"#utility.yul\":8288:8368   */\n      tag_80\n      jump\t// in\n    tag_182:\n        /* \"#utility.yul\":7947:8378   */\n      pop\n      pop\n        /* \"#utility.yul\":7932:8378   */\n    tag_178:\n        /* \"#utility.yul\":7842:8385   */\n      pop\n      pop\n      pop\n      jump\t// out\n        /* \"#utility.yul\":8391:8508   */\n    tag_82:\n        /* \"#utility.yul\":8445:8453   */\n      0x00\n        /* \"#utility.yul\":8495:8500   */\n      dup3\n        /* \"#utility.yul\":8489:8493   */\n      dup3\n        /* \"#utility.yul\":8485:8501   */\n      shr\n        /* \"#utility.yul\":8464:8501   */\n      swap1\n      pop\n        /* \"#utility.yul\":8391:8508   */\n      swap3\n      swap2\n      pop\n      pop\n      jump\t// out\n        /* \"#utility.yul\":8514:8683   */\n    tag_83:\n        /* \"#utility.yul\":8558:8564   */\n      0x00\n        /* \"#utility.yul\":8591:8642   */\n      tag_186\n        /* \"#utility.yul\":8639:8640   */\n      0x00\n        /* \"#utility.yul\":8635:8641   */\n      not\n        /* \"#utility.yul\":8627:8632   */\n      dup5\n        /* \"#utility.yul\":8624:8625   */\n      0x08\n        /* \"#utility.yul\":8620:8633   */\n      mul\n        /* \"#utility.yul\":8591:8642   */\n      tag_82\n      jump\t// in\n    tag_186:\n        /* \"#utility.yul\":8587:8643   */\n      not\n        /* \"#utility.yul\":8672:8676   */\n      dup1\n        /* \"#utility.yul\":8666:8670   */\n      dup4\n        /* \"#utility.yul\":8662:8677   */\n      and\n        /* \"#utility.yul\":8652:8677   */\n      swap2\n      pop\n        /* \"#utility.yul\":8565:8683   */\n      pop\n        /* \"#utility.yul\":8514:8683   */\n      swap3\n      swap2\n      pop\n      pop\n      jump\t// out\n        /* \"#utility.yul\":8688:8983   */\n    tag_84:\n        /* \"#utility.yul\":8764:8768   */\n      0x00\n        /* \"#utility.yul\":8910:8939   */\n      tag_188\n        /* \"#utility.yul\":8935:8938   */\n      dup4\n        /* \"#utility.yul\":8929:8933   */\n      dup4\n        /* \"#utility.yul\":8910:8939   */\n      tag_83\n      jump\t// in\n    tag_188:\n        /* \"#utility.yul\":8902:8939   */\n      swap2\n      pop\n        /* \"#utility.yul\":8972:8975   */\n      dup3\n        /* \"#utility.yul\":8969:8970   */\n      0x02\n        /* \"#utility.yul\":8965:8976   */\n      mul\n        /* \"#utility.yul\":8959:8963   */\n      dup3\n        /* \"#utility.yul\":8956:8977   */\n      or\n        /* \"#utility.yul\":8948:8977   */\n      swap1\n      pop\n        /* \"#utility.yul\":8688:8983   */\n      swap3\n      swap2\n      pop\n      pop\n      jump\t// out\n        /* \"#utility.yul\":8988:10383   */\n    tag_40:\n        /* \"#utility.yul\":9105:9142   */\n      tag_190\n        /* \"#utility.yul\":9138:9141   */\n      dup3\n        /* \"#utility.yul\":9105:9142   */\n      tag_55\n      jump\t// in\n    tag_190:\n        /* \"#utility.yul\":9207:9225   */\n      0xffffffffffffffff\n        /* \"#utility.yul\":9199:9205   */\n      dup2\n        /* \"#utility.yul\":9196:9226   */\n      gt\n        /* \"#utility.yul\":9193:9249   */\n      iszero\n      tag_191\n      jumpi\n        /* \"#utility.yul\":9229:9247   */\n      tag_192\n      tag_62\n      jump\t// in\n    tag_192:\n        /* \"#utility.yul\":9193:9249   */\n    tag_191:\n        /* \"#utility.yul\":9273:9311   */\n      tag_193\n        /* \"#utility.yul\":9305:9309   */\n      dup3\n        /* \"#utility.yul\":9299:9310   */\n      sload\n        /* \"#utility.yul\":9273:9311   */\n      tag_32\n      jump\t// in\n    tag_193:\n        /* \"#utility.yul\":9358:9425   */\n      tag_194\n        /* \"#utility.yul\":9418:9424   */\n      dup3\n        /* \"#utility.yul\":9410:9416   */\n      dup3\n        /* \"#utility.yul\":9404:9408   */\n      dup6\n        /* \"#utility.yul\":9358:9425   */\n      tag_81\n      jump\t// in\n    tag_194:\n        /* \"#utility.yul\":9452:9453   */\n      0x00\n        /* \"#utility.yul\":9476:9480   */\n      0x20\n        /* \"#utility.yul\":9463:9480   */\n      swap1\n      pop\n        /* \"#utility.yul\":9508:9510   */\n      0x1f\n        /* \"#utility.yul\":9500:9506   */\n      dup4\n        /* \"#utility.yul\":9497:9511   */\n      gt\n        /* \"#utility.yul\":9525:9526   */\n      0x01\n        /* \"#utility.yul\":9520:10138   */\n      dup2\n      eq\n      tag_196\n      jumpi\n        /* \"#utility.yul\":10182:10183   */\n      0x00\n        /* \"#utility.yul\":10199:10205   */\n      dup5\n        /* \"#utility.yul\":10196:10273   */\n      iszero\n      tag_197\n      jumpi\n        /* \"#utility.yul\":10248:10257   */\n      dup3\n        /* \"#utility.yul\":10243:10246   */\n      dup8\n        /* \"#utility.yul\":10239:10258   */\n      add\n        /* \"#utility.yul\":10233:10259   */\n      mload\n        /* \"#utility.yul\":10224:10259   */\n      swap1\n      pop\n        /* \"#utility.yul\":10196:10273   */\n    tag_197:\n        /* \"#utility.yul\":10299:10366   */\n      tag_198\n        /* \"#utility.yul\":10359:10365   */\n      dup6\n        /* \"#utility.yul\":10352:10357   */\n      dup3\n        /* \"#utility.yul\":10299:10366   */\n      tag_84\n      jump\t// in\n    tag_198:\n        /* \"#utility.yul\":10293:10297   */\n      dup7\n        /* \"#utility.yul\":10286:10367   */\n      sstore\n        /* \"#utility.yul\":10155:10377   */\n      pop\n        /* \"#utility.yul\":9490:10377   */\n      jump(tag_195)\n        /* \"#utility.yul\":9520:10138   */\n    tag_196:\n        /* \"#utility.yul\":9572:9576   */\n      0x1f\n        /* \"#utility.yul\":9568:9577   */\n      not\n        /* \"#utility.yul\":9560:9566   */\n      dup5\n        /* \"#utility.yul\":9556:9578   */\n      and\n        /* \"#utility.yul\":9606:9643   */\n      tag_199\n        /* \"#utility.yul\":9638:9642   */\n      dup7\n        /* \"#utility.yul\":9606:9643   */\n      tag_70\n      jump\t// in\n    tag_199:\n        /* \"#utility.yul\":9665:9666   */\n      0x00\n        /* \"#utility.yul\":9679:9887   */\n    tag_200:\n        /* \"#utility.yul\":9693:9700   */\n      dup3\n        /* \"#utility.yul\":9690:9691   */\n      dup2\n        /* \"#utility.yul\":9687:9701   */\n      lt\n        /* \"#utility.yul\":9679:9887   */\n      iszero\n      tag_202\n      jumpi\n        /* \"#utility.yul\":9772:9781   */\n      dup5\n        /* \"#utility.yul\":9767:9770   */\n      dup10\n        /* \"#utility.yul\":9763:9782   */\n      add\n        /* \"#utility.yul\":9757:9783   */\n      mload\n        /* \"#utility.yul\":9749:9755   */\n      dup3\n        /* \"#utility.yul\":9742:9784   */\n      sstore\n        /* \"#utility.yul\":9823:9824   */\n      0x01\n        /* \"#utility.yul\":9815:9821   */\n      dup3\n        /* \"#utility.yul\":9811:9825   */\n      add\n        /* \"#utility.yul\":9801:9825   */\n      swap2\n      pop\n        /* \"#utility.yul\":9870:9872   */\n      0x20\n        /* \"#utility.yul\":9859:9868   */\n      dup6\n        /* \"#utility.yul\":9855:9873   */\n      add\n        /* \"#utility.yul\":9842:9873   */\n      swap5\n      pop\n        /* \"#utility.yul\":9716:9720   */\n      0x20\n        /* \"#utility.yul\":9713:9714   */\n      dup2\n        /* \"#utility.yul\":9709:9721   */\n      add\n        /* \"#utility.yul\":9704:9721   */\n      swap1\n      pop\n        /* \"#utility.yul\":9679:9887   */\n      jump(tag_200)\n    tag_202:\n        /* \"#utility.yul\":9915:9921   */\n      dup7\n        /* \"#utility.yul\":9906:9913   */\n      dup4\n        /* \"#utility.yul\":9903:9922   */\n      lt\n        /* \"#utility.yul\":9900:10079   */\n      iszero\n      tag_203\n      jumpi\n        /* \"#utility.yul\":9973:9982   */\n      dup5\n        /* \"#utility.yul\":9968:9971   */\n      dup10\n        /* \"#utility.yul\":9964:9983   */\n      add\n        /* \"#utility.yul\":9958:9984   */\n      mload\n        /* \"#utility.yul\":10016:10064   */\n      tag_204\n        /* \"#utility.yul\":10058:10062   */\n      0x1f\n        /* \"#utility.yul\":10050:10056   */\n      dup10\n        /* \"#utility.yul\":10046:10063   */\n      and\n        /* \"#utility.yul\":10035:10044   */\n      dup3\n        /* \"#utility.yul\":10016:10064   */\n      tag_83\n      jump\t// in\n    tag_204:\n        /* \"#utility.yul\":10008:10014   */\n      dup4\n        /* \"#utility.yul\":10001:10065   */\n      sstore\n        /* \"#utility.yul\":9923:10079   */\n      pop\n        /* \"#utility.yul\":9900:10079   */\n    tag_203:\n        /* \"#utility.yul\":10125:10126   */\n      0x01\n        /* \"#utility.yul\":10121:10122   */\n      0x02\n        /* \"#utility.yul\":10113:10119   */\n      dup9\n        /* \"#utility.yul\":10109:10123   */\n      mul\n        /* \"#utility.yul\":10105:10127   */\n      add\n        /* \"#utility.yul\":10099:10103   */\n      dup9\n        /* \"#utility.yul\":10092:10128   */\n      sstore\n        /* \"#utility.yul\":9527:10138   */\n      pop\n      pop\n      pop\n        /* \"#utility.yul\":9490:10377   */\n    tag_195:\n      pop\n        /* \"#utility.yul\":9080:10383   */\n      pop\n      pop\n      pop\n        /* \"#utility.yul\":8988:10383   */\n      pop\n      pop\n      jump\t// out\n\n    auxdata: 0xa26469706673582212201e132651c292fbe2c52b14044559ddcd8c40241eff5e0ff99d1771cbb43184bc64736f6c634300081e0033\n}\n",
				"bytecode": {
					"linkReferences": {},
					"object": "6080604052348015600e575f5ffd5b506108bb8061001c5f395ff3fe608060405234801561000f575f5ffd5b506004361061004a575f3560e01c80631b3694911461004e57806332cb25be1461006c578063933977ff1461009d578063b4c2f727146100b9575b5f5ffd5b6100566100ea565b60405161006391906102fc565b60405180910390f35b61008660048036038101906100819190610350565b6100f5565b6040516100949291906103eb565b60405180910390f35b6100b760048036038101906100b29190610545565b6101d1565b005b6100d360048036038101906100ce9190610350565b610230565b6040516100e19291906103eb565b60405180910390f35b5f5f80549050905090565b60605f5f5f848154811061010c5761010b61058c565b5b905f5260205f2090600202016040518060400160405290815f82018054610132906105e6565b80601f016020809104026020016040519081016040528092919081815260200182805461015e906105e6565b80156101a95780601f10610180576101008083540402835291602001916101a9565b820191905f5260205f20905b81548152906001019060200180831161018c57829003601f168201915b505050505081526020016001820154815250509050805f015181602001519250925050915091565b5f604051806040016040528083815260200142815250908060018154018082558091505060019003905f5260205f2090600202015f909190919091505f820151815f01908161022091906107b6565b5060208201518160010155505050565b5f818154811061023e575f80fd5b905f5260205f2090600202015f91509050805f01805461025d906105e6565b80601f0160208091040260200160405190810160405280929190818152602001828054610289906105e6565b80156102d45780601f106102ab576101008083540402835291602001916102d4565b820191905f5260205f20905b8154815290600101906020018083116102b757829003601f168201915b5050505050908060010154905082565b5f819050919050565b6102f6816102e4565b82525050565b5f60208201905061030f5f8301846102ed565b92915050565b5f604051905090565b5f5ffd5b5f5ffd5b61032f816102e4565b8114610339575f5ffd5b50565b5f8135905061034a81610326565b92915050565b5f602082840312156103655761036461031e565b5b5f6103728482850161033c565b91505092915050565b5f81519050919050565b5f82825260208201905092915050565b8281835e5f83830152505050565b5f601f19601f8301169050919050565b5f6103bd8261037b565b6103c78185610385565b93506103d7818560208601610395565b6103e0816103a3565b840191505092915050565b5f6040820190508181035f83015261040381856103b3565b905061041260208301846102ed565b9392505050565b5f5ffd5b5f5ffd5b7f4e487b71000000000000000000000000000000000000000000000000000000005f52604160045260245ffd5b610457826103a3565b810181811067ffffffffffffffff8211171561047657610475610421565b5b80604052505050565b5f610488610315565b9050610494828261044e565b919050565b5f67ffffffffffffffff8211156104b3576104b2610421565b5b6104bc826103a3565b9050602081019050919050565b828183375f83830152505050565b5f6104e96104e484610499565b61047f565b9050828152602081018484840111156105055761050461041d565b5b6105108482856104c9565b509392505050565b5f82601f83011261052c5761052b610419565b5b813561053c8482602086016104d7565b91505092915050565b5f6020828403121561055a5761055961031e565b5b5f82013567ffffffffffffffff81111561057757610576610322565b5b61058384828501610518565b91505092915050565b7f4e487b71000000000000000000000000000000000000000000000000000000005f52603260045260245ffd5b7f4e487b71000000000000000000000000000000000000000000000000000000005f52602260045260245ffd5b5f60028204905060018216806105fd57607f821691505b6020821081036106105761060f6105b9565b5b50919050565b5f819050815f5260205f209050919050565b5f6020601f8301049050919050565b5f82821b905092915050565b5f600883026106727fffffffffffffffffffffffffffffffffffffffffffffffffffffffffffffffff82610637565b61067c8683610637565b95508019841693508086168417925050509392505050565b5f819050919050565b5f6106b76106b26106ad846102e4565b610694565b6102e4565b9050919050565b5f819050919050565b6106d08361069d565b6106e46106dc826106be565b848454610643565b825550505050565b5f5f905090565b6106fb6106ec565b6107068184846106c7565b505050565b5b818110156107295761071e5f826106f3565b60018101905061070c565b5050565b601f82111561076e5761073f81610616565b61074884610628565b81016020851015610757578190505b61076b61076385610628565b83018261070b565b50505b505050565b5f82821c905092915050565b5f61078e5f1984600802610773565b1980831691505092915050565b5f6107a6838361077f565b9150826002028217905092915050565b6107bf8261037b565b67ffffffffffffffff8111156107d8576107d7610421565b5b6107e282546105e6565b6107ed82828561072d565b5f60209050601f83116001811461081e575f841561080c578287015190505b610816858261079b565b86555061087d565b601f19841661082c86610616565b5f5b828110156108535784890151825560018201915060208501945060208101905061082e565b86831015610870578489015161086c601f89168261077f565b8355505b6001600288020188555050505b50505050505056fea26469706673582212201e132651c292fbe2c52b14044559ddcd8c40241eff5e0ff99d1771cbb43184bc64736f6c634300081e0033",
					"opcodes": "PUSH1 0x80 PUSH1 0x40 MSTORE CALLVALUE DUP1 ISZERO PUSH1 0xE JUMPI PUSH0 PUSH0 REVERT JUMPDEST POP PUSH2 0x8BB DUP1 PUSH2 0x1C PUSH0 CODECOPY PUSH0 RETURN INVALID PUSH1 0x80 PUSH1 0x40 MSTORE CALLVALUE DUP1 ISZERO PUSH2 0xF JUMPI PUSH0 PUSH0 REVERT JUMPDEST POP PUSH1 0x4 CALLDATASIZE LT PUSH2 0x4A JUMPI PUSH0 CALLDATALOAD PUSH1 0xE0 SHR DUP1 PUSH4 0x1B369491 EQ PUSH2 0x4E JUMPI DUP1 PUSH4 0x32CB25BE EQ PUSH2 0x6C JUMPI DUP1 PUSH4 0x933977FF EQ PUSH2 0x9D JUMPI DUP1 PUSH4 0xB4C2F727 EQ PUSH2 0xB9 JUMPI JUMPDEST PUSH0 PUSH0 REVERT JUMPDEST PUSH2 0x56 PUSH2 0xEA JUMP JUMPDEST PUSH1 0x40 MLOAD PUSH2 0x63 SWAP2 SWAP1 PUSH2 0x2FC JUMP JUMPDEST PUSH1 0x40 MLOAD DUP1 SWAP2 SUB SWAP1 RETURN JUMPDEST PUSH2 0x86 PUSH1 0x4 DUP1 CALLDATASIZE SUB DUP2 ADD SWAP1 PUSH2 0x81 SWAP2 SWAP1 PUSH2 0x350 JUMP JUMPDEST PUSH2 0xF5 JUMP JUMPDEST PUSH1 0x40 MLOAD PUSH2 0x94 SWAP3 SWAP2 SWAP1 PUSH2 0x3EB JUMP JUMPDEST PUSH1 0x40 MLOAD DUP1 SWAP2 SUB SWAP1 RETURN JUMPDEST PUSH2 0xB7 PUSH1 0x4 DUP1 CALLDATASIZE SUB DUP2 ADD SWAP1 PUSH2 0xB2 SWAP2 SWAP1 PUSH2 0x545 JUMP JUMPDEST PUSH2 0x1D1 JUMP JUMPDEST STOP JUMPDEST PUSH2 0xD3 PUSH1 0x4 DUP1 CALLDATASIZE SUB DUP2 ADD SWAP1 PUSH2 0xCE SWAP2 SWAP1 PUSH2 0x350 JUMP JUMPDEST PUSH2 0x230 JUMP JUMPDEST PUSH1 0x40 MLOAD PUSH2 0xE1 SWAP3 SWAP2 SWAP1 PUSH2 0x3EB JUMP JUMPDEST PUSH1 0x40 MLOAD DUP1 SWAP2 SUB SWAP1 RETURN JUMPDEST PUSH0 PUSH0 DUP1 SLOAD SWAP1 POP SWAP1 POP SWAP1 JUMP JUMPDEST PUSH1 0x60 PUSH0 PUSH0 PUSH0 DUP5 DUP2 SLOAD DUP2 LT PUSH2 0x10C JUMPI PUSH2 0x10B PUSH2 0x58C JUMP JUMPDEST JUMPDEST SWAP1 PUSH0 MSTORE PUSH1 0x20 PUSH0 KECCAK256 SWAP1 PUSH1 0x2 MUL ADD PUSH1 0x40 MLOAD DUP1 PUSH1 0x40 ADD PUSH1 0x40 MSTORE SWAP1 DUP2 PUSH0 DUP3 ADD DUP1 SLOAD PUSH2 0x132 SWAP1 PUSH2 0x5E6 JUMP JUMPDEST DUP1 PUSH1 0x1F ADD PUSH1 0x20 DUP1 SWAP2 DIV MUL PUSH1 0x20 ADD PUSH1 0x40 MLOAD SWAP1 DUP2 ADD PUSH1 0x40 MSTORE DUP1 SWAP3 SWAP2 SWAP1 DUP2 DUP2 MSTORE PUSH1 0x20 ADD DUP3 DUP1 SLOAD PUSH2 0x15E SWAP1 PUSH2 0x5E6 JUMP JUMPDEST DUP1 ISZERO PUSH2 0x1A9 JUMPI DUP1 PUSH1 0x1F LT PUSH2 0x180 JUMPI PUSH2 0x100 DUP1 DUP4 SLOAD DIV MUL DUP4 MSTORE SWAP2 PUSH1 0x20 ADD SWAP2 PUSH2 0x1A9 JUMP JUMPDEST DUP3 ADD SWAP2 SWAP1 PUSH0 MSTORE PUSH1 0x20 PUSH0 KECCAK256 SWAP1 JUMPDEST DUP2 SLOAD DUP2 MSTORE SWAP1 PUSH1 0x1 ADD SWAP1 PUSH1 0x20 ADD DUP1 DUP4 GT PUSH2 0x18C JUMPI DUP3 SWAP1 SUB PUSH1 0x1F AND DUP3 ADD SWAP2 JUMPDEST POP POP POP POP POP DUP2 MSTORE PUSH1 0x20 ADD PUSH1 0x1 DUP3 ADD SLOAD DUP2 MSTORE POP POP SWAP1 POP DUP1 PUSH0 ADD MLOAD DUP2 PUSH1 0x20 ADD MLOAD SWAP3 POP SWAP3 POP POP SWAP2 POP SWAP2 JUMP JUMPDEST PUSH0 PUSH1 0x40 MLOAD DUP1 PUSH1 0x40 ADD PUSH1 0x40 MSTORE DUP1 DUP4 DUP2 MSTORE PUSH1 0x20 ADD TIMESTAMP DUP2 MSTORE POP SWAP1 DUP1 PUSH1 0x1 DUP2 SLOAD ADD DUP1 DUP3 SSTORE DUP1 SWAP2 POP POP PUSH1 0x1 SWAP1 SUB SWAP1 PUSH0 MSTORE PUSH1 0x20 PUSH0 KECCAK256 SWAP1 PUSH1 0x2 MUL ADD PUSH0 SWAP1 SWAP2 SWAP1 SWAP2 SWAP1 SWAP2 POP PUSH0 DUP3 ADD MLOAD DUP2 PUSH0 ADD SWAP1 DUP2 PUSH2 0x220 SWAP2 SWAP1 PUSH2 0x7B6 JUMP JUMPDEST POP PUSH1 0x20 DUP3 ADD MLOAD DUP2 PUSH1 0x1 ADD SSTORE POP POP POP JUMP JUMPDEST PUSH0 DUP2 DUP2 SLOAD DUP2 LT PUSH2 0x23E JUMPI PUSH0 DUP1 REVERT JUMPDEST SWAP1 PUSH0 MSTORE PUSH1 0x20 PUSH0 KECCAK256 SWAP1 PUSH1 0x2 MUL ADD PUSH0 SWAP2 POP SWAP1 POP DUP1 PUSH0 ADD DUP1 SLOAD PUSH2 0x25D SWAP1 PUSH2 0x5E6 JUMP JUMPDEST DUP1 PUSH1 0x1F ADD PUSH1 0x20 DUP1 SWAP2 DIV MUL PUSH1 0x20 ADD PUSH1 0x40 MLOAD SWAP1 DUP2 ADD PUSH1 0x40 MSTORE DUP1 SWAP3 SWAP2 SWAP1 DUP2 DUP2 MSTORE PUSH1 0x20 ADD DUP3 DUP1 SLOAD PUSH2 0x289 SWAP1 PUSH2 0x5E6 JUMP JUMPDEST DUP1 ISZERO PUSH2 0x2D4 JUMPI DUP1 PUSH1 0x1F LT PUSH2 0x2AB JUMPI PUSH2 0x100 DUP1 DUP4 SLOAD DIV MUL DUP4 MSTORE SWAP2 PUSH1 0x20 ADD SWAP2 PUSH2 0x2D4 JUMP JUMPDEST DUP3 ADD SWAP2 SWAP1 PUSH0 MSTORE PUSH1 0x20 PUSH0 KECCAK256 SWAP1 JUMPDEST DUP2 SLOAD DUP2 MSTORE SWAP1 PUSH1 0x1 ADD SWAP1 PUSH1 0x20 ADD DUP1 DUP4 GT PUSH2 0x2B7 JUMPI DUP3 SWAP1 SUB PUSH1 0x1F AND DUP3 ADD SWAP2 JUMPDEST POP POP POP POP POP SWAP1 DUP1 PUSH1 0x1 ADD SLOAD SWAP1 POP DUP3 JUMP JUMPDEST PUSH0 DUP2 SWAP1 POP SWAP2 SWAP1 POP JUMP JUMPDEST PUSH2 0x2F6 DUP2 PUSH2 0x2E4 JUMP JUMPDEST DUP3 MSTORE POP POP JUMP JUMPDEST PUSH0 PUSH1 0x20 DUP3 ADD SWAP1 POP PUSH2 0x30F PUSH0 DUP4 ADD DUP5 PUSH2 0x2ED JUMP JUMPDEST SWAP3 SWAP2 POP POP JUMP JUMPDEST PUSH0 PUSH1 0x40 MLOAD SWAP1 POP SWAP1 JUMP JUMPDEST PUSH0 PUSH0 REVERT JUMPDEST PUSH0 PUSH0 REVERT JUMPDEST PUSH2 0x32F DUP2 PUSH2 0x2E4 JUMP JUMPDEST DUP2 EQ PUSH2 0x339 JUMPI PUSH0 PUSH0 REVERT JUMPDEST POP JUMP JUMPDEST PUSH0 DUP2 CALLDATALOAD SWAP1 POP PUSH2 0x34A DUP2 PUSH2 0x326 JUMP JUMPDEST SWAP3 SWAP2 POP POP JUMP JUMPDEST PUSH0 PUSH1 0x20 DUP3 DUP5 SUB SLT ISZERO PUSH2 0x365 JUMPI PUSH2 0x364 PUSH2 0x31E JUMP JUMPDEST JUMPDEST PUSH0 PUSH2 0x372 DUP5 DUP3 DUP6 ADD PUSH2 0x33C JUMP JUMPDEST SWAP2 POP POP SWAP3 SWAP2 POP POP JUMP JUMPDEST PUSH0 DUP2 MLOAD SWAP1 POP SWAP2 SWAP1 POP JUMP JUMPDEST PUSH0 DUP3 DUP3 MSTORE PUSH1 0x20 DUP3 ADD SWAP1 POP SWAP3 SWAP2 POP POP JUMP JUMPDEST DUP3 DUP2 DUP4 MCOPY PUSH0 DUP4 DUP4 ADD MSTORE POP POP POP JUMP JUMPDEST PUSH0 PUSH1 0x1F NOT PUSH1 0x1F DUP4 ADD AND SWAP1 POP SWAP2 SWAP1 POP JUMP JUMPDEST PUSH0 PUSH2 0x3BD DUP3 PUSH2 0x37B JUMP JUMPDEST PUSH2 0x3C7 DUP2 DUP6 PUSH2 0x385 JUMP JUMPDEST SWAP4 POP PUSH2 0x3D7 DUP2 DUP6 PUSH1 0x20 DUP7 ADD PUSH2 0x395 JUMP JUMPDEST PUSH2 0x3E0 DUP2 PUSH2 0x3A3 JUMP JUMPDEST DUP5 ADD SWAP2 POP POP SWAP3 SWAP2 POP POP JUMP JUMPDEST PUSH0 PUSH1 0x40 DUP3 ADD SWAP1 POP DUP2 DUP2 SUB PUSH0 DUP4 ADD MSTORE PUSH2 0x403 DUP2 DUP6 PUSH2 0x3B3 JUMP JUMPDEST SWAP1 POP PUSH2 0x412 PUSH1 0x20 DUP4 ADD DUP5 PUSH2 0x2ED JUMP JUMPDEST SWAP4 SWAP3 POP POP POP JUMP JUMPDEST PUSH0 PUSH0 REVERT JUMPDEST PUSH0 PUSH0 REVERT JUMPDEST PUSH32 0x4E487B7100000000000000000000000000000000000000000000000000000000 PUSH0 MSTORE PUSH1 0x41 PUSH1 0x4 MSTORE PUSH1 0x24 PUSH0 REVERT JUMPDEST PUSH2 0x457 DUP3 PUSH2 0x3A3 JUMP JUMPDEST DUP2 ADD DUP2 DUP2 LT PUSH8 0xFFFFFFFFFFFFFFFF DUP3 GT OR ISZERO PUSH2 0x476 JUMPI PUSH2 0x475 PUSH2 0x421 JUMP JUMPDEST JUMPDEST DUP1 PUSH1 0x40 MSTORE POP POP POP JUMP JUMPDEST PUSH0 PUSH2 0x488 PUSH2 0x315 JUMP JUMPDEST SWAP1 POP PUSH2 0x494 DUP3 DUP3 PUSH2 0x44E JUMP JUMPDEST SWAP2 SWAP1 POP JUMP JUMPDEST PUSH0 PUSH8 0xFFFFFFFFFFFFFFFF DUP3 GT ISZERO PUSH2 0x4B3 JUMPI PUSH2 0x4B2 PUSH2 0x421 JUMP JUMPDEST JUMPDEST PUSH2 0x4BC DUP3 PUSH2 0x3A3 JUMP JUMPDEST SWAP1 POP PUSH1 0x20 DUP2 ADD SWAP1 POP SWAP2 SWAP1 POP JUMP JUMPDEST DUP3 DUP2 DUP4 CALLDATACOPY PUSH0 DUP4 DUP4 ADD MSTORE POP POP POP JUMP JUMPDEST PUSH0 PUSH2 0x4E9 PUSH2 0x4E4 DUP5 PUSH2 0x499 JUMP JUMPDEST PUSH2 0x47F JUMP JUMPDEST SWAP1 POP DUP3 DUP2 MSTORE PUSH1 0x20 DUP2 ADD DUP5 DUP5 DUP5 ADD GT ISZERO PUSH2 0x505 JUMPI PUSH2 0x504 PUSH2 0x41D JUMP JUMPDEST JUMPDEST PUSH2 0x510 DUP5 DUP3 DUP6 PUSH2 0x4C9 JUMP JUMPDEST POP SWAP4 SWAP3 POP POP POP JUMP JUMPDEST PUSH0 DUP3 PUSH1 0x1F DUP4 ADD SLT PUSH2 0x52C JUMPI PUSH2 0x52B PUSH2 0x419 JUMP JUMPDEST JUMPDEST DUP2 CALLDATALOAD PUSH2 0x53C DUP5 DUP3 PUSH1 0x20 DUP7 ADD PUSH2 0x4D7 JUMP JUMPDEST SWAP2 POP POP SWAP3 SWAP2 POP POP JUMP JUMPDEST PUSH0 PUSH1 0x20 DUP3 DUP5 SUB SLT ISZERO PUSH2 0x55A JUMPI PUSH2 0x559 PUSH2 0x31E JUMP JUMPDEST JUMPDEST PUSH0 DUP3 ADD CALLDATALOAD PUSH8 0xFFFFFFFFFFFFFFFF DUP2 GT ISZERO PUSH2 0x577 JUMPI PUSH2 0x576 PUSH2 0x322 JUMP JUMPDEST JUMPDEST PUSH2 0x583 DUP5 DUP3 DUP6 ADD PUSH2 0x518 JUMP JUMPDEST SWAP2 POP POP SWAP3 SWAP2 POP POP JUMP JUMPDEST PUSH32 0x4E487B7100000000000000000000000000000000000000000000000000000000 PUSH0 MSTORE PUSH1 0x32 PUSH1 0x4 MSTORE PUSH1 0x24 PUSH0 REVERT JUMPDEST PUSH32 0x4E487B7100000000000000000000000000000000000000000000000000000000 PUSH0 MSTORE PUSH1 0x22 PUSH1 0x4 MSTORE PUSH1 0x24 PUSH0 REVERT JUMPDEST PUSH0 PUSH1 0x2 DUP3 DIV SWAP1 POP PUSH1 0x1 DUP3 AND DUP1 PUSH2 0x5FD JUMPI PUSH1 0x7F DUP3 AND SWAP2 POP JUMPDEST PUSH1 0x20 DUP3 LT DUP2 SUB PUSH2 0x610 JUMPI PUSH2 0x60F PUSH2 0x5B9 JUMP JUMPDEST JUMPDEST POP SWAP2 SWAP1 POP JUMP JUMPDEST PUSH0 DUP2 SWAP1 POP DUP2 PUSH0 MSTORE PUSH1 0x20 PUSH0 KECCAK256 SWAP1 POP SWAP2 SWAP1 POP JUMP JUMPDEST PUSH0 PUSH1 0x20 PUSH1 0x1F DUP4 ADD DIV SWAP1 POP SWAP2 SWAP1 POP JUMP JUMPDEST PUSH0 DUP3 DUP3 SHL SWAP1 POP SWAP3 SWAP2 POP POP JUMP JUMPDEST PUSH0 PUSH1 0x8 DUP4 MUL PUSH2 0x672 PUSH32 0xFFFFFFFFFFFFFFFFFFFFFFFFFFFFFFFFFFFFFFFFFFFFFFFFFFFFFFFFFFFFFFFF DUP3 PUSH2 0x637 JUMP JUMPDEST PUSH2 0x67C DUP7 DUP4 PUSH2 0x637 JUMP JUMPDEST SWAP6 POP DUP1 NOT DUP5 AND SWAP4 POP DUP1 DUP7 AND DUP5 OR SWAP3 POP POP POP SWAP4 SWAP3 POP POP POP JUMP JUMPDEST PUSH0 DUP2 SWAP1 POP SWAP2 SWAP1 POP JUMP JUMPDEST PUSH0 PUSH2 0x6B7 PUSH2 0x6B2 PUSH2 0x6AD DUP5 PUSH2 0x2E4 JUMP JUMPDEST PUSH2 0x694 JUMP JUMPDEST PUSH2 0x2E4 JUMP JUMPDEST SWAP1 POP SWAP2 SWAP1 POP JUMP JUMPDEST PUSH0 DUP2 SWAP1 POP SWAP2 SWAP1 POP JUMP JUMPDEST PUSH2 0x6D0 DUP4 PUSH2 0x69D JUMP JUMPDEST PUSH2 0x6E4 PUSH2 0x6DC DUP3 PUSH2 0x6BE JUMP JUMPDEST DUP5 DUP5 SLOAD PUSH2 0x643 JUMP JUMPDEST DUP3 SSTORE POP POP POP POP JUMP JUMPDEST PUSH0 PUSH0 SWAP1 POP SWAP1 JUMP JUMPDEST PUSH2 0x6FB PUSH2 0x6EC JUMP JUMPDEST PUSH2 0x706 DUP2 DUP5 DUP5 PUSH2 0x6C7 JUMP JUMPDEST POP POP POP JUMP JUMPDEST JUMPDEST DUP2 DUP2 LT ISZERO PUSH2 0x729 JUMPI PUSH2 0x71E PUSH0 DUP3 PUSH2 0x6F3 JUMP JUMPDEST PUSH1 0x1 DUP2 ADD SWAP1 POP PUSH2 0x70C JUMP JUMPDEST POP POP JUMP JUMPDEST PUSH1 0x1F DUP3 GT ISZERO PUSH2 0x76E JUMPI PUSH2 0x73F DUP2 PUSH2 0x616 JUMP JUMPDEST PUSH2 0x748 DUP5 PUSH2 0x628 JUMP JUMPDEST DUP2 ADD PUSH1 0x20 DUP6 LT ISZERO PUSH2 0x757 JUMPI DUP2 SWAP1 POP JUMPDEST PUSH2 0x76B PUSH2 0x763 DUP6 PUSH2 0x628 JUMP JUMPDEST DUP4 ADD DUP3 PUSH2 0x70B JUMP JUMPDEST POP POP JUMPDEST POP POP POP JUMP JUMPDEST PUSH0 DUP3 DUP3 SHR SWAP1 POP SWAP3 SWAP2 POP POP JUMP JUMPDEST PUSH0 PUSH2 0x78E PUSH0 NOT DUP5 PUSH1 0x8 MUL PUSH2 0x773 JUMP JUMPDEST NOT DUP1 DUP4 AND SWAP2 POP POP SWAP3 SWAP2 POP POP JUMP JUMPDEST PUSH0 PUSH2 0x7A6 DUP4 DUP4 PUSH2 0x77F JUMP JUMPDEST SWAP2 POP DUP3 PUSH1 0x2 MUL DUP3 OR SWAP1 POP SWAP3 SWAP2 POP POP JUMP JUMPDEST PUSH2 0x7BF DUP3 PUSH2 0x37B JUMP JUMPDEST PUSH8 0xFFFFFFFFFFFFFFFF DUP2 GT ISZERO PUSH2 0x7D8 JUMPI PUSH2 0x7D7 PUSH2 0x421 JUMP JUMPDEST JUMPDEST PUSH2 0x7E2 DUP3 SLOAD PUSH2 0x5E6 JUMP JUMPDEST PUSH2 0x7ED DUP3 DUP3 DUP6 PUSH2 0x72D JUMP JUMPDEST PUSH0 PUSH1 0x20 SWAP1 POP PUSH1 0x1F DUP4 GT PUSH1 0x1 DUP2 EQ PUSH2 0x81E JUMPI PUSH0 DUP5 ISZERO PUSH2 0x80C JUMPI DUP3 DUP8 ADD MLOAD SWAP1 POP JUMPDEST PUSH2 0x816 DUP6 DUP3 PUSH2 0x79B JUMP JUMPDEST DUP7 SSTORE POP PUSH2 0x87D JUMP JUMPDEST PUSH1 0x1F NOT DUP5 AND PUSH2 0x82C DUP7 PUSH2 0x616 JUMP JUMPDEST PUSH0 JUMPDEST DUP3 DUP2 LT ISZERO PUSH2 0x853 JUMPI DUP5 DUP10 ADD MLOAD DUP3 SSTORE PUSH1 0x1 DUP3 ADD SWAP2 POP PUSH1 0x20 DUP6 ADD SWAP5 POP PUSH1 0x20 DUP2 ADD SWAP1 POP PUSH2 0x82E JUMP JUMPDEST DUP7 DUP4 LT ISZERO PUSH2 0x870 JUMPI DUP5 DUP10 ADD MLOAD PUSH2 0x86C PUSH1 0x1F DUP10 AND DUP3 PUSH2 0x77F JUMP JUMPDEST DUP4 SSTORE POP JUMPDEST PUSH1 0x1 PUSH1 0x2 DUP9 MUL ADD DUP9 SSTORE POP POP POP JUMPDEST POP POP POP POP POP POP JUMP INVALID LOG2 PUSH5 0x6970667358 0x22 SLT KECCAK256 0x1E SGT 0x26 MLOAD 0xC2 SWAP3 EXTSTATICCALL 0xE2 0xC5 0x2B EQ DIV GASLIMIT MSIZE 0xDD 0xCD DUP13 BLOCKHASH 0x24 0x1E SELFDESTRUCT MCOPY 0xF EXTDELEGATECALL SWAP14 OR PUSH18 0xCBB43184BC64736F6C634300081E00330000 "
				},
				"gasEstimates": {
					"creation": {
						"codeDepositCost": "447000",
						"executionCost": "478",
						"totalCost": "447478"
					},
					"external": {
						"getUpdate(uint256)": "infinite",
						"storeModelHash(string)": "infinite",
						"totalUpdates()": "2417",
						"updates(uint256)": "infinite"
					}
				},
				"methodIdentifiers": {
					"getUpdate(uint256)": "32cb25be",
					"storeModelHash(string)": "933977ff",
					"totalUpdates()": "1b369491",
					"updates(uint256)": "b4c2f727"
				}
			},
			"storageLayout": {
				"storage": [
					{
						"astId": 10,
						"contract": "MedFed.sol:ModelRegistry",
						"label": "updates",
						"offset": 0,
						"slot": "0",
						"type": "t_array(t_struct(ModelUpdate)6_storage)dyn_storage"
					}
				],
				"types": {
					"t_array(t_struct(ModelUpdate)6_storage)dyn_storage": {
						"base": "t_struct(ModelUpdate)6_storage",
						"encoding": "dynamic_array",
						"label": "struct ModelRegistry.ModelUpdate[]",
						"numberOfBytes": "32"
					},
					"t_string_storage": {
						"encoding": "bytes",
						"label": "string",
						"numberOfBytes": "32"
					},
					"t_struct(ModelUpdate)6_storage": {
						"encoding": "inplace",
						"label": "struct ModelRegistry.ModelUpdate",
						"members": [
							{
								"astId": 3,
								"contract": "MedFed.sol:ModelRegistry",
								"label": "modelHash",
								"offset": 0,
								"slot": "0",
								"type": "t_string_storage"
							},
							{
								"astId": 5,
								"contract": "MedFed.sol:ModelRegistry",
								"label": "timestamp",
								"offset": 0,
								"slot": "1",
								"type": "t_uint256"
							}
						],
						"numberOfBytes": "64"
					},
					"t_uint256": {
						"encoding": "inplace",
						"label": "uint256",
						"numberOfBytes": "32"
					}
				}
			},
			"userdoc": {
				"kind": "user",
				"methods": {},
				"version": 1
			}
		}
	}
}